:08020900C2B5D2B67F027E00EF
:10021100D3EF9400EE940040257DFAEDD394007461
:1002210080948040031D80F37DF7EDD394007480AA
:0E023100948040031D80F3EF1F70D51E80D215
:01023F00229C
:1002F8007F0212033E7F3812033E7F0E12033E7FB9
:040308000102033EAD
:0A033E008F80C2B4120209C2B62279
:0A0348008F80D2B4120209C2B6225F
:10030C001202DFFF600C120348740129F9E43AFA77
:03031C0080EE224E
:1002C200456E7465722070617373776F72643A0061
:0D02D200496E76616C6964207077642E00BF
:10000600E4F50CF50DF512F5171202F87F801203D0
:100016003E120369E4F50CC3E50C940474809480E5
:100026005012AD0CE4FF1201D17413250CF8A6078B
:10003600050C80E3E4F50C7F32FE1202117BFF7A99
:100046000279C212030C7FC012033EC3E50C94046E
:1000560074809480502F1200D08F0B7F1E7E00126A
:1000660002111200D0E50BB507E1C3E50C94047448
:1000760080948050D6AF0B120348740E250CF8A658
:100086000B050C80C6E4F50C7F32FE120211C3E5A7
:100096000C9404748094805027740E250CF8E6FFA7
:1000A6007413250CF8E66F60137F0112033E7F8000
:1000B60012033E7BFF7A0279D202030C050C80CE36
:0A00C6007F647E0012021102001A8E
:1000D0007590FF7590FEAF90EF64EE70037F312254
:1000E000AF90EF64DE70037F3222AF90EF64BE709A
:1000F000037F33227590FDAF90EF64ED70037F3482
:1001000022AF90EF64DD70037F3522AF90EF64BDC6
:1001100070037F36227590FBAF90EF64EB70037F26
:100120003722AF90EF64DB70037F3822AF90EF642B
:10013000BB70037F39227590F7AF90EF64E77003CF
:100140007F2A22AF90EF64D770037F3022AF90EF09
:0A01500064B760030200D37F23228E
:100240008F088D098B0A12035B7FA01202731203C1
:100250001FAF0812027312031FAF091202731203B9
:100260001FAF0A12027312031F1203527F0A7E008D
:0302700002021176
:0401D1008F188D19DD
:1001D50012035B7FA012027312031FAF1812027382
:1001E50012031FAF1912027312031F12035B7FA1C3
:1001F50012027312031F12029B8F1A12036212035B
:0302050052AF1ADB
:0102080022D3
:07035B00D2A1D2A0C2A02232
:09035200C2A1C2A0D2A1D2A022D6
:100273007E07EE3395E0C364809480401AC2A1A840
:1002830006EF088002C313D8FC30E003D38001C318
:0702930092A0D2A11E80DB46
:01029A002241
:10029B00E4FF7E07EE3395E0C3648094804017D271
:1002AB00A130A00DA8067401088002C333D8FC420C
:0602BB0007C2A11E80DE57
:0102C100221A
:10031F00C2A1D2A0D2A100000000C2A120A002C39E
:03032F0022D322B4
:07036200C2A1D2A0D2A1222A
:0300030002015A9D
:10015A00C0E0C0F0C083C082C0D075D000C000C06B
:10016A0001C002C003C004C005C006C0077F011257
:10017A00033E7F8012033E751B00C3E51B94047483
:10018A0080948050271200D08F1C7F1E7E0012029E
:10019A00111200D08F1DE51CB51D0DFF120348ABCF
:1001AA001CAD1BE4FF120240051B80CED007D0060F
:1001BA00D005D004D003D002D001D000D0D0D08254
:0701CA00D083D0F0D0E03239
:07036900D2AFD2A8D2882216
:03000000020332C6
:0C033200787FE4F6D8FD75811D020006FE
:1002DF00BB010689828A83E0225002E722BBFE021D
:0902EF00E32289828A83E4932250
:00000001FF
